:020000040800F2
:10000000000005202D3C000851050008530500089C
:1000100055050008570500085905000800000000B4
:10002000000000000000000000000000613900082E
:100030005B05000800000000013A0008EB340008EE
:100040007D3C00087D3C00087D3C00087D3C0008AC
:100050007D3C00087D3C00087D3C00087D3C00089C
:100060007D3C00087D3C00087D3C00087D3C00088C
:100070007D3C00087D3C00087D3C00087D3C00087C
:100080007D3C00087D3C00087D3C00087D3C00086C
:100090007D3C00087D3C00087D3C00087D3C00085C
:1000A0007D3C00087D3C00087D3C00087D3C00084C
:1000B0007D3C00087D3C00087D3C00087D3C00083C
:1000C0007D3C00087D3C00087D3C00087D3C00082C
:1000D0007D3C00087D3C00087D3C00087D3C00081C
:1000E0007D3C00087D3C00087D3C00087D3C00080C
:1000F0007D3C00087D3C00087D3C00087D3C0008FC
:100100007D3C00087D3C00087D3C00087D3C0008EB
:100110007D3C00087D3C00087D3C00085D05000832
:100120007D3C00087D3C00087D3C00087D3C0008CB
:100130007D3C00087D3C00087D3C00087D3C0008BB
:100140007D3C00087D3C00087D3C00087D3C0008AB
:100150007D3C00087D3C00087D3C00087D3C00089B
:100160007D3C00087D3C00087D3C00087D3C00088B
:100170007D3C00087D3C00080000000000000000FD
:100180007D3C00087D3C00087D3C00087D3C00086B
:100190007D3C00087D3C0008000000007D3C00081C
:1001A0007D3C00087D3C00080000000000000000CD
:1001B0007D3C000800000000000000007D3C0008BD
:1001C0007D3C00087D3C00087D3C00087D3C00082B
:0801D0007D3C00087D3C0008A5
:1001E00053B94AB9002908BF00281CBF4FF0FF319E
:1001F0004FF0FF3000F00CB8ADF1080C6DE904CE03
:1002000003F026FEDDF804E0DDE9022304B07047C8
:10021000704700BF0348044B834202D0034B03B135
:1002200018477047600000206000002000000000B8
:100230000548064B1B1AD90F01EBA301491002D048
:10024000034B03B118477047600000206000002096
:100250000000000010B5064C237843B9FFF7DAFF21
:10026000044B13B10448AFF300800123237010BD89
:1002700060000020000000000C41000808B5054B9C
:100280001BB105490548AFF30080BDE80840FFF702
:10029000CFBF00BF00000000640000200C41000838
:1002A000F0B58DB000240794089409940A940B9437
:1002B0000194394B1A6B42F004021A631A6B02F074
:1002C00004020192019A02941A6B42F080021A63AE
:1002D0001A6B02F080020292029A03941A6B42F0A7
:1002E00002021A631A6B02F002020392039A049448
:1002F0001A6B42F008021A631A6B02F008020492A9
:10030000049A05941A6B42F040021A631A6B02F0C9
:1003100040020592059A06941A6B42F001021A6394
:100320001B6B03F001030693069B1C4F224644F20D
:100330008101384601F062F8194D224640212846D5
:1003400001F05CF84FF4005307934FF488130893BF
:10035000099407A9134800F061FF44F28103079351
:100360000126089609940A9407A9384600F056FF1A
:1003700040230793089609940A9407A9284600F099
:100380004DFF802307930894099407A9284600F09D
:1003900045FF0DB0F0BD00BF003802400004024030
:1003A000001802400008024008B5012003F037F9A8
:1003B000FBE7000008B50121034801F025F8C8203B
:1003C00003F02DF9F7E700BF0004024008B502680A
:1003D000034B9A4200D008BD01F0A2F8FBE700BF32
:1003E0000014004072B6FEE708B50A480A4B0360E5
:1003F0004FF4E133436000238360C36003610C2248
:1004000042618361C36101F0D5FA00B908BDFFF70D
:10041000E9FF00BF680500200048004008B50C480F
:100420004FF0A0430360062303710222C271002330
:100430008371427201228272C372037342738273A8
:10044000C37301F0E7FA00B908BDFFF7CBFF00BFA7
:100450008400002000B595B03422002107A803F0E5
:100460000EFC0023029303930493059306930093D9
:10047000204A116C41F080511164126C02F08052DC
:100480000092009A01931C4B1A6842F440421A6091
:100490001B6803F440430193019B012307934FF42E
:1004A000A023089302230D934FF480020E9208229A
:1004B0000F924FF4C0711091042111911292139375
:1004C00007A800F0A3FC88B90F230293022303932B
:1004D000002304934FF4805205920693032102A84F
:1004E00000F0B2F920B915B05DF804FBFFF77AFF10
:1004F000FFF778FF003802400070004008B500F0B8
:10050000F5FFFFF7A7FFFFF7CBFEFFF76DFFFFF744
:1005100085FF02F0F7FF084A0021084803F020F8A1
:10052000074B1860074A0021074803F019F8074BEA
:10053000186002F0F9FFFEE778410008A9030008FF
:100540008000002054410008B50300087C00002012
:10055000FEE7FEE7FEE7FEE7FEE7704708B5024864
:1005600001F04EF808BD00BFB005002000B583B013
:10057000002200920D4B596C41F480415964596C32
:1005800001F48041009100990192196C41F0805171
:1005900019641B6C03F080530193019B0F216FF0D2
:1005A000010000F08FFF03B05DF804FB003802404B
:1005B00000B589B000230393049305930693079332
:1005C0000268154B9A4202D009B05DF804FB002185
:1005D000019103F5F8331A6C42F480221A641A6C04
:1005E00002F480220192019A02911A6B42F00802F1
:1005F0001A631B6B03F008030293029B4FF44073D2
:10060000039302230493032306930723079303A969
:10061000024800F003FED7E700480040000C02400B
:1006200070B59EB00446002119911A911B911C913E
:100630001D91582203A803F022FB2368B3F1A04FB9
:1006400001D01EB070BD2023039303A800F0F0F981
:10065000002832D100250195194C236B43F001038A
:100660002363236B03F001030193019B4FF4E853D1
:10067000199302231A931B9503231C930A231D939A
:10068000104E19A9304600F0C9FD4FF400731993BC
:100690001A951B9519A9304600F0C0FD636B43F015
:1006A000800363630295636C43F480436364636C0B
:1006B00003F480430293029BC3E7FFF793FEC9E76D
:1006C000003802400000024030B589B004460023E3
:1006D0000193214B1A6C42F020021A641B6C03F048
:1006E00020030193019B02A903A800F083F9069B54
:1006F000CBB900F05FF90346184AA2FB03239B0C19
:10070000013B1748174A026040F2E732C26043607B
:10071000002303618360836101F08EF8054630B1E8
:10072000284609B030BD00F045F94300E4E70C4825
:1007300000F01EFF05460028F2D1372000F0D2FE5F
:100740000F2C01D90125EBE700222146372000F0CC
:10075000B9FE054B1C60E3E70038024083DE1B4313
:10076000B0050020001400400400002008B5334B01
:100770009B6803F00C03042B5BD0082B5BD12F4B41
:100780005A6802F03F025B6813F4800F2CD02B4BA9
:100790005868C0F388104FEA401CBCEB000C6EEBAD
:1007A0000E0E4FEA8E1343EA9C634FEA8C11B1EBB5
:1007B0000C0163EB0E03DB0043EA5173C90011EB3C
:1007C000000C43F10003590200234FEA4C2041EA98
:1007D000DC51FFF705FD194B5B68C3F3014301339F
:1007E0005B00B0FBF3F008BD144B5868C0F38810F1
:1007F0004FEA401CBCEB000C6EEB0E0E4FEA8E1362
:1008000043EA9C634FEA8C11B1EB0C0163EB0E03DE
:10081000DB0043EA5173C90011EB000C43F1000304
:10082000990200234FEA8C2041EA9C51FFF7D8FC43
:10083000D1E70348D7E70348D5E700BF00380240B7
:1008400000127A000024F400002800F09B8070B5AC
:100850000D4604464F4B1B6803F007038B4208D23A
:10086000CBB24C4A1370136803F007038B4240F07D
:100870008B80236813F0020F17D013F0040F04D0FD
:10088000454A936843F4E0539360236813F0080FDC
:1008900004D0414A936843F4604393603E4A9368AE
:1008A00023F0F003A1680B439360236813F0010F5A
:1008B00032D06368012B21D09A1E012A25D9364AED
:1008C000126812F0020F61D033498A6822F00302E5
:1008D00013438B6000F030FE06462F4B9B6803F0FD
:1008E0000C036268B3EB820F16D000F025FE801B6C
:1008F00041F288339842F0D9032042E0264A126838
:1009000012F4003FE0D101203BE0234A126812F0CC
:10091000007FD9D1012034E01E4B1B6803F0070390
:10092000AB4207D9EAB21B4B1A701B6803F00703EE
:10093000AB422DD1236813F0040F06D0164A9368FA
:1009400023F4E053E1680B439360236813F0080F2E
:1009500007D0114A936823F46043216943EAC10335
:100960009360FFF703FF0C4B9B68C3F303130B4A21
:10097000D35CD8400A4B18600A4B1868FFF7A4FEF6
:10098000002070BD012070470120FAE70120F8E740
:100990000120F6E7003C024000380240A441000874
:1009A0000800002004000020014B1868704700BFB9
:1009B0000800002008B5FFF7F7FF044B9B68C3F35E
:1009C0008223034AD35CD84008BD00BF00380240F0
:1009D0009C41000808B5FFF7E7FF044B9B68C3F391
:1009E0004233034AD35CD84008BD00BF0038024000
:1009F0009C4100080F2303600B4B9A6802F003022E
:100A000042609A6802F0F00282609A6802F4E05252
:100A1000C2609B68DB0803F4E0530361034B1B686F
:100A200003F007030B60704700380240003C0240AF
:100A300070B582B00446056815F001050DD0A84ACE
:100A4000D2F88C3023F0C063C1690B43C2F88C30FC
:100A5000C369002B00F0BF800025236813F0020F4C
:100A60000BD09F4AD2F88C3023F0C053216A0B433D
:100A7000C2F88C30236A03B90125236813F4005FA0
:100A80000FD0974AD2F88C3023F44013A16C0B435B
:100A9000C2F88C30A36C03B90125B3F5001F00F038
:100AA0009C80236813F4804F0FD08D4AD2F88C308D
:100AB00023F44003E16C0B43C2F88C30E36C03B9C0
:100AC0000125B3F5000F00F09480236813F0080FA0
:100AD00040F09B80236813F0040F04D094F8542056
:100AE000804BC3F8E021236813F0100F08D07C4A34
:100AF000D2F8943023F44003E16A0B43C2F89430F7
:100B0000236813F0200F0DD0754AD2F8943023F0EB
:100B10000063216B0B43C2F89430236BB3F1006F79
:100B200000F0DC80236813F0400F08D06C4AD2F844
:100B3000943023F08053A16A0B43C2F89430002D07
:100B400040F0D6802368802B00F0D280236813F415
:100B5000807F08D0624AD2F88C3023F00043616B6A
:100B60000B43C2F88C30236813F4007F08D05C4A32
:100B7000D2F88C3023F40043A16B0B43C2F88C30C5
:100B8000236813F4806F08D0554AD2F88C3023F0D4
:100B90000043E16B0B43C2F88C30236813F4006F01
:100BA00008D04F4AD2F88C3023F48043216C0B4399
:100BB000C2F88C30236813F4805F00F01E81484A2D
:100BC000D2F8943023F04043616C0B43C2F8943068
:100BD000002002B070BD01253FE74149D1F88C30BB
:100BE00023F4F8536269013A43EA0223C1F88C30D6
:100BF00057E73B49D1F88C3023F4F8536269013A46
:100C000043EA0223C1F88C305FE700230193344BA1
:100C10001A6C42F080521A641B6C03F080530193EB
:100C2000019B314A136843F48073136000F084FC25
:100C300006462D4B1B6813F4807F06D100F07CFC28
:100C4000801B0228F5D90320C3E7254B1B6F13F443
:100C5000407314D0626A02F440729A420FD0204B63
:100C60001A6F22F4407221490120C1F8400E002081
:100C7000C1F8400E1A671B6F13F0010F12D1636A9F
:100C800003F44072B2F5407F1DD0154A936823F4F7
:100C9000F813936012490B6F626AC2F30B0213439D
:100CA0000B6717E700F048FC06460D4B1B6F13F06F
:100CB000020FE4D100F040FC801B41F288339842DF
:100CC000F3D9032085E706498A6822F4F81223F055
:100CD000704323F4407313438B60DBE7012521E766
:100CE00000380240001047420070004000004742B8
:100CF000434B00229A6600F01FFC0546414B1B68DF
:100D000013F0006F06D000F017FC401B0228F5D945
:100D100003205EE7226D3C4BC3F8D820236813F014
:100D2000010F01D0E269A2B113F0020F01D0226AD3
:100D30007AB113F0200F03D0226BB2F1006F08D00C
:100D400013F0400F12D0A36A83B9236BB3F1006F85
:100D50000CD16368A26843EA8213E26843EA026343
:100D6000226943EA0273274AC2F88430236813F4E5
:100D7000005F01D0A26C22B113F4804F19D0E36C54
:100D8000BBB9204AD2F884106368A06843EA801394
:100D900001F070610B43216943EA0173C2F88430AA
:100DA000D2F88C3023F01F03A16901390B43C2F83C
:100DB0008C30236813F0800F0CD06368A26843EA7C
:100DC0008213E26843EA0263226943EA02730D4A2E
:100DD000C2F884300A4B01229A6600F0ADFB05464A
:100DE000084B1B6813F0006F7FF4B0AE00F0A4FB5B
:100DF000401B0228F4D90320EBE60020E9E600BFFF
:100E0000000047420038024000104742002800F02E
:100E1000E98170B582B00446036813F0010F3BD03E
:100E20009F4B9B6803F00C03042B2CD09C4B9B68BE
:100E300003F00C03082B21D06368B3F5803F4FD03B
:100E4000B3F5A02F52D0964B1A6822F480321A6064
:100E50001A6822F480221A606368002B50D000F0D8
:100E60006BFB05468E4B1B6813F4003F14D100F05A
:100E700063FB401B6428F5D90320BAE1884B5B680B
:100E800013F4800FD8D0864B1B6813F4003F03D0B7
:100E90006368002B00F0A881236813F0020F54D080
:100EA0007F4B9B6813F00C0F3ED07D4B9B6803F08B
:100EB0000C03082B33D0E368002B68D0794B012258
:100EC0001A6000F039FB0546754B1B6813F0020FE2
:100ED00054D100F031FB401B0228F5D9032088E1F2
:100EE0006F4A136843F480331360B5E76C4B1A689C
:100EF00042F480221A601A6842F480321A60ABE72A
:100F000000F01AFB0546664B1B6813F4003FC3D084
:100F100000F012FB401B6428F5D9032069E1604B07
:100F20005B6813F4800FC6D15D4B1B6813F0020F92
:100F300003D0E368012B40F05981594A136823F02C
:100F4000F803216943EAC1031360236813F0080F13
:100F500042D063696BB3534B0122C3F8802E00F07B
:100F6000EBFA05464E4B5B6F13F0020F34D100F0E5
:100F7000E3FA401B0228F5D903203AE1484A1368F6
:100F800023F0F803216943EAC1031360DDE7454B11
:100F900000221A6000F0D0FA0546414B1B6813F09E
:100FA000020FD2D000F0C8FA401B0228F5D9032066
:100FB0001FE13C4B0022C3F8802E00F0BDFA05462D
:100FC000374B5B6F13F0020F06D000F0B5FA401BF1
:100FD0000228F5D903200CE1236813F0040F77D021
:100FE0002F4B1B6C13F0805F33D1002301932C4BEC
:100FF0001A6C42F080521A641B6C03F08053019308
:10100000019B0125284B1B6813F4807F23D0A36824
:10101000012B34D0052B38D0214B1A6F22F001025E
:101020001A671A6F22F004021A67A368002B3DD0DA
:1010300000F082FA06461A4B1B6F13F0020F46D1DE
:1010400000F07AFA801B41F288339842F3D90320EA
:10105000CFE00025D6E7144A136843F48073136089
:1010600000F06AFA0646104B1B6813F4807FCED15D
:1010700000F062FA801B0228F5D90320B9E0084A83
:10108000136F43F001031367CFE7054B1A6F42F06C
:1010900004021A671A6F42F001021A67C5E700BF1F
:1010A00000380240000047420070004000F044FA5F
:1010B0000646584B1B6F13F0020F08D000F03CFAA5
:1010C000801B41F288339842F3D9032091E0EDB9B7
:1010D000A369002B00F08C804E4A926802F00C024B
:1010E000082A54D0022B17D04B4B00221A6600F06E
:1010F00023FA0446474B1B6813F0007F45D000F0ED
:101100001BFA001B0228F5D9032072E0414A136C38
:1011100023F080531364DBE73F4B00221A6600F094
:101120000BFA05463B4B1B6813F0007F06D000F01E
:1011300003FA401B0228F5D903205AE0E369226A2A
:101140001343626A43EA8213A26A5208013A43EAED
:101150000243E26A43EA0263226B43EA02732D4AC6
:1011600053602D4B01221A6600F0E6F90446294B24
:101170001B6813F0007F06D100F0DEF9001B022887
:10118000F5D9032035E0002033E0002031E0012BC9
:1011900031D0204B5B6803F48001E26991422CD18D
:1011A00003F03F02216A8A4229D1616A47F6C07280
:1011B0001A40B2EB811F24D103F44031A26A5208D5
:1011C000013AB1EB024F1ED103F07062E16AB2EB5B
:1011D000016F1AD103F0E043226BB3EB027F16D10B
:1011E000002006E001207047012002E0012000E01D
:1011F000002002B070BD0120FBE70120F9E70120CB
:10120000F7E70120F5E70120F3E70120F1E70120EE
:10121000EFE700BF003802400000474200230F2BD9
:1012200000F2E38070B582B065E085684FEA430E56
:10123000032404FA0EF425EA0405CC6804FA0EF43B
:101240002C438460446824EA02044A68C2F3001212
:101250009A40224342605CE0DC08083450F82420C5
:1012600003F00705AD004FF00F0E0EFA05FE22EA5F
:101270000E0E0A69AA4042EA0E0240F824205CE001
:10128000062200E0002202FA0EF22A430234574DF1
:1012900045F82420564A94686FEA0C0224EA0C05AB
:1012A0004E6816F4801F01D04CEA0405504CA5602E
:1012B000E46802EA04054E6816F4001F01D04CEA07
:1012C00004054B4CE560646802EA04054E6816F4B8
:1012D000003F01D04CEA0405454C6560246822407B
:1012E0004D6815F4803F01D04CEA0402404C226066
:1012F00001330F2B77D801229A400C6804EA020CC4
:1013000032EA0404F4D14C6804F00304013C012CDB
:101310008BD94A6802F00302032A09D0C4685D0031
:101320000322AA4024EA02048A68AA402243C26037
:101330004A6802F00302022A8ED004684FEA430E84
:10134000032202FA0EF224EA02044A6802F00302BF
:1013500002FA0EF2224302604A6812F4403FC7D0FC
:1013600000220192234A546C44F480445464526C29
:1013700002F480420192019A9C08A51C1B4A52F873
:10138000255003F0030E4FEA8E0E0F2202FA0EF2E2
:1013900025EA0205184A90423FF474AF02F58062D4
:1013A000904216D002F58062904214D002F580621D
:1013B000904212D002F58062904210D002F5806215
:1013C00090420ED002F5806290423FF459AF07225E
:1013D00059E7012257E7022255E7032253E7042287
:1013E00051E705224FE702B070BD70470038014059
:1013F000003C014000380240000002400AB1816117
:101400007047090481617047436901EA030221EAD8
:10141000030141EA0241816170470000002807DBB7
:1014200000F01F02400901239340024A42F8203095
:10143000704700BF00E100E0002808DB0901C9B2E5
:1014400000F1604000F5614080F80013704700F043
:101450000F000901C9B2014B1954704714ED00E0A7
:1014600000B500F00700C0F1070CBCF1040F28BF65
:101470004FF0040C031D062B0FD9C31E4FF0FF3E87
:101480000EFA0CF021EA000199400EFA03FE22EA5E
:101490000E0241EA02005DF804FB0023EEE70000C3
:1014A000074AD36823F4E0631B041B0C000200F41A
:1014B000E060034343F0BF6343F40033D3607047FD
:1014C00000ED00E010B50446054BD868C0F30220DB
:1014D000FFF7C6FF01462046FFF7AEFF10BD00BF75
:1014E00000ED00E008B5FFF799FF08BD08B50B4B0C
:1014F0001A6842F400721A601A6842F480621A6034
:101500001A6842F480721A600320FFF7C9FF0F20A7
:10151000FFF7DAF8FFF72AF8002008BD003C024088
:10152000034A1168034B1B780B441360704700BFDC
:10153000F805002000000020014B1868704700BF2C
:10154000F805002038B50446FFF7F6FF0546B4F16C
:10155000FF3F02D0044B1B781C44FFF7EDFF401BFC
:10156000A042FAD338BD00BF000000207047000041
:1015700090F83D30DBB2012B37D1022380F83D30AB
:101580000268D36843F00103D3600368194A9342A9
:1015900020D0B3F1804F1DD0A2F57C42934219D0E8
:1015A00002F58062934215D002F58062934211D019
:1015B00002F5784293420DD002F57052934209D061
:1015C000A2F59432934205D01A6842F001021A60E3
:1015D000002070479A6802F00702062A07D01A68AE
:1015E00042F001021A60002070470120704700207D
:1015F000704700BF00000140704770477047704758
:1016000070B504460368DE681D6915F0020F10D03E
:1016100016F0020F0DD06FF002021A61012303775A
:1016200003689B6913F0030F5ED0FFF7E6FF00230A
:10163000237715F0040F12D016F0040F0FD0236893
:101640006FF004021A610223237723689B6913F465
:10165000407F4FD02046FFF7D0FF0023237715F0BF
:10166000080F12D016F0080F0FD023686FF0080291
:101670001A61042323772368DB6913F0030F40D03A
:101680002046FFF7BAFF0023237715F0100F12D082
:1016900016F0100F0FD023686FF010021A610823A4
:1016A00023772368DB6913F4407F31D02046FFF7AE
:1016B000A4FF0023237715F0010F02D016F0010FCD
:1016C0002DD115F0800F02D016F0800F2FD115F01C
:1016D000400F02D016F0400F31D115F0200F02D08C
:1016E00016F0200F33D170BDFFF786FF2046FFF7BD
:1016F00085FF9CE72046FFF77FFF2046FFF77EFF30
:10170000ABE72046FFF778FF2046FFF777FFBAE701
:101710002046FFF771FF2046FFF770FFC9E72368F7
:101720006FF001021A612046FEF750FEC9E72368F8
:101730006FF080021A61204600F0ABF8C7E723681B
:101740006FF040021A612046FFF759FFC5E7236892
:101750006FF020021A61204600F09AF8C3E70000FB
:101760000368344A904212D0B0F1804F0FD0A2F5F6
:101770007C4290420BD002F58062904207D002F585
:101780008062904203D002F57842904203D123F068
:1017900070034A681343274A90422AD0B0F1804F21
:1017A00027D0A2F57C42904223D002F5806290427D
:1017B0001FD002F5806290421BD002F57842904221
:1017C00017D002F57052904213D002F58062904219
:1017D0000FD002F5806290420BD0A2F59832904271
:1017E00007D002F58062904203D002F580629042F9
:1017F00003D123F44073CA68134323F080034A697A
:10180000134303608B68C3620B688362094B984281
:1018100003D003F58063984201D10B690363012370
:101820004361036913F0010F03D0036923F001033F
:10183000036170470000014040B310B5044690F8C2
:101840003D30F3B1022384F83D30214651F8040BBA
:10185000FFF786FF012384F8463084F83E3084F891
:101860003F3084F8403084F8413084F8423084F8C6
:10187000433084F8443084F8453084F83D3000200B
:1018800010BD80F83C30FFF771FEDBE701207047A8
:101890007047704710B504460268136923F440533B
:1018A000C1680B431361836802691A4343691A4391
:1018B000C3691A430168CB6823F4164323F00C0371
:1018C0001343CB600268536923F4407381690B436F
:1018D00053610368354A93420ED002F58062934209
:1018E0000AD002F58062934206D002F580629342EC
:1018F00002D0FFF75FF801E0FFF76CF8E369B3F59A
:10190000004F29D00021031849411B1841F1000163
:10191000C90041EA5371DB00181863684FEA83027B
:101920004FEA937341F10001FEF75AFC204AA2FBF3
:1019300000314909642303FB11031B013233A2FB6D
:1019400003235B0903F0F00202EB011203F00F0323
:10195000216813448B6010BD0023021843EB030180
:10196000121841F10001C90041EA5271D200101869
:1019700041F10001626892185B41FEF731FC0C4AAC
:10198000A2FB00314909642303FB1103DB0032335E
:10199000A2FB03235B095A0002F4F87202EB011266
:1019A00003F00703216813448B60D4E70010014063
:1019B0001F85EB5160B310B5044690F8413013B366
:1019C000242384F841302268D36823F40053D36081
:1019D0002046FFF75FFF2268136923F490431361E9
:1019E0002268536923F02A0353612268D36843F4C1
:1019F0000053D36000206064202384F8413084F8D1
:101A00004230606310BD80F84030FEF7D1FDD7E76B
:101A10000120704730B583B0002800F08280044672
:101A2000056890F89534C3B1032384F89534B5F173
:101A3000A04F17D0206800F0F7F8237C8DF8003015
:101A4000231D0ECB206800F0A6F870B1022384F8A5
:101A500095340125284603B030BD80F89434FEF754
:101A6000DFFDE1E70023A371E4E70021206800F037
:101A700009FA024608B9034617E0022384F89534B0
:101A80000125E7E703EBC30104EB81010120487561
:101A90000B75CB8500200876C861086203EBC30193
:101AA00004EB810148620133DBB220799842E9D826
:101AB00016E002EBC20304EB8303002183F8551206
:101AC00083F8542283F85812C3F85C12C3F86012EA
:101AD00002EBC20304EB8303C3F864120132D2B2F7
:101AE0009042E6D8237C8DF80030231D0ECB206871
:101AF00000F0F0F8054658B900236374012384F818
:101B00009534237B012B08D0206800F0A9F9A1E7C8
:101B1000022384F8953401259CE7204600F003F861
:101B2000F2E7012596E7034602680121C0F8D814C0
:101B3000002083F8CC04936943F000639361536DF4
:101B400043F0805343F003035365704782B0002392
:101B50000193019B01330193019BB3F1706F15D881
:101B60000369002BF5DA00230193036943F00103B5
:101B70000361019B01330193019BB3F1706F08D89E
:101B8000036913F0010FF4D1002000E0032002B03C
:101B900070470320FBE784B010B5044603A880E833
:101BA0000E009DF81130012B21D1A36B23F480335B
:101BB000A363E36823F4840323F04003E360E36852
:101BC00023F44013E3609DF81830012B0AD020461F
:101BD000FFF7BCFF9DF80E30012B1CD0BDE8104074
:101BE00004B07047E36843F48013E360EFE7E36811
:101BF00043F04003E3602046FFF7A8FF9DF815304F
:101C000023B9A36B43F48033A363E3E7A36B23F40B
:101C10008033A363DEE7A36843F00603A360A368F1
:101C200043F02003A360D9E7836823F001038360B6
:101C30000020704782B000230193019B0133019380
:101C4000019BB3F1706F15D80369002BF5DA0023FF
:101C50000193890141F020010161019B013301934E
:101C6000019BB3F1706F08D8036913F0200FF4D112
:101C7000002000E0032002B070470320FBE782B0A1
:101C800000230193019B01330193019BB3F1706F1A
:101C900013D80369002BF5DA0023019310230361A5
:101CA000019B01330193019BB3F1706F08D8036965
:101CB00013F0100FF4D1002000E0032002B07047B1
:101CC0000320FBE7D0F800381943C0F800180020C3
:101CD0007047000084B0F8B5044607A880E80E00FD
:101CE000002306E003F1400204EB82020021516070
:101CF00001330E2BF6D99DF8266006BBD4F80438C4
:101D000043F00203C4F80438A36B23F40013A36365
:101D1000236843F040032360236843F0800323607B
:101D20000023C4F8003E9DF82130012B11D19DF80D
:101D30001F304BB900212046FFF7C4FF0DE0A36B15
:101D400043F40013A363EBE701212046FFF7BAFF3A
:101D500003E003212046FFF7B5FF10212046FFF7DF
:101D600069FF054600B101252046FFF788FF00B155
:101D7000012504F5006C0023CCF81030CCF81430A9
:101D8000CCF81C300AE0CBB94FF00060C2F8000973
:101D900000220A614FF67F328A6001339DF81C10E1
:101DA000994210D904EB431202F51061D2F80009F0
:101DB0000028E8DB0020C2F80009E9E74FF0904076
:101DC000C2F80009E4E700230AE0BBB14FF09047F6
:101DD000C2F8007B002202614FF67F32826001333D
:101DE000994210D904EB431202F53060D2F8007B1F
:101DF000002FEADB0027C2F8007BEBE74FF000671B
:101E0000C2F8007BE6E7DCF8103023F48073CCF8EE
:101E100010300023A3616FF0804363619DF81E3092
:101E20001BB9A36943F01003A361A2690B4B1343D1
:101E3000A3619DF822301BB1A36943F00803A3619D
:101E4000012E04D02846BDE8F84004B07047A369CD
:101E500043F0804343F00403A361F3E700383C8080
:101E6000D0F8003E23F00303C0F8003ED0F8043859
:101E700043F00203C0F8043800207047406900F0C6
:101E80000100704738B50546C36823F0C043C360FE
:101E9000012913D019BBC36843F08043C3600024F9
:101EA0000A20FFF74FFB0A342846FFF7E7FF08B187
:101EB000C72CF5D9C82C14D0002038BDC36843F016
:101EC0000053C36000240A20FFF73CFB0A34284675
:101ED000FFF7D4FF0128EDD0C72CF4D9EAE70120A1
:101EE000EBE70120E9E70000034AD2F8883043F429
:101EF0007003C2F88830704700ED00E000F108037D
:101F000043604FF0FF328260C360036100230360CF
:101F1000704700230361704743684B609A688A608A
:101F2000516099600861036801330360704730B401
:101F30000D68B5F1FF3F11D000F108031C465B6846
:101F40001A68AA42FAD963684B6099608C60616034
:101F5000086103680133036030BC70470469F2E72D
:101F60000369416882688A60416851605A688242A8
:101F700006D0002202611A68013A1A601868704798
:101F800082685A60F5E710B5044601F0FBFCA26BCD
:101F9000E36B9A4204D0002401F016FD204610BDE8
:101FA0000124F9E710B5044601F0ECFCA36B23B95A
:101FB000012401F009FD204610BD0024F9E770B5A9
:101FC00004461546866B026C5AB903681BB10020A3
:101FD0000136A66370BD806801F016F80023A36087
:101FE000F6E76DB9406801F0CFFE6368226C1344D8
:101FF0006360A268934219D3236863602846E7E7C9
:10200000C06801F0C1FEE368226C51429B1AE36094
:102010002268934202D2A3680B44E360022D01D0F0
:102020000020D5E726B1013E0020D1E72846CFE7C2
:102030000020CDE70346026C6AB110B50846D968A6
:102040001144D9609C68A14201D31968D960D9684C
:1020500001F09AFE10BD704738B5054601F092FCBC
:1020600095F8454064B201E0013C64B2002C0ADD01
:102070006B6A43B105F1240000F01CFF0028F3D087
:1020800000F0ACFFF0E7FF2385F8453001F09CFC41
:1020900001F078FC95F8444064B201E0013C64B280
:1020A000002C0ADD2B6943B105F1100000F002FF9E
:1020B0000028F3D000F092FFF0E7FF2385F84430CA
:1020C00001F082FC38BD38B5E0B10D46044601F0A0
:1020D00059FC2368E26B216C01FB0230A0600020F8
:1020E000A0636360013A02FB0133E360FF2384F8DD
:1020F000443084F84530FDB9236963B901F064FCCC
:10210000012038BD4FF0500383F31188BFF36F8F68
:10211000BFF34F8FFEE704F1100000F0CBFE002864
:10212000ECD04FF0E0234FF08052C3F8042DBFF302
:102130004F8FBFF36F8FE1E704F11000FFF7DEFE72
:1021400004F12400FFF7DAFED8E738B51D46049CF9
:102150000B4649B92460E063236401212046FFF760
:10216000B2FF84F84C5038BD2260F4E740B94FF01C
:10217000500383F31188BFF36F8FBFF34F8FFEE7D8
:1021800010B584B01C46844653B192B189B94FF062
:10219000500383F31188BFF36F8FBFF34F8FFEE7B8
:1021A0004FF0500383F31188BFF36F8FBFF34F8F4E
:1021B000FEE76AB150230393039B502B13D04FF0DB
:1021C000500383F31188BFF36F8FBFF34F8FFEE788
:1021D0000029EFD04FF0500383F31188BFF36F8FC6
:1021E000BFF34F8FFEE7039B012384F84630009432
:1021F0009DF818306046FFF7A8FF204604B010BDD8
:10220000F0B585B0019288B10F461D460446B1B1C4
:10221000022D20D1E36B012B1DD04FF0500383F32F
:102220001188BFF36F8FBFF34F8FFEE74FF050035E
:1022300083F31188BFF36F8FBFF34F8FFEE7036CFB
:10224000002BE5D04FF0500383F31188BFF36F8F5D
:10225000BFF34F8FFEE700F0C7FE064658B9019B5B
:10226000002B48D04FF0500383F31188BFF36F8FDA
:10227000BFF34F8FFEE700263DE02A463946204651
:10228000FFF79DFE636A7BB948B14FF0E0234FF042
:102290008052C3F8042DBFF34F8FBFF36F8F01F04F
:1022A00093FB012005B0F0BD04F1240000F002FE14
:1022B0000028F4D04FF0E0234FF08052C3F8042DF3
:1022C000BFF34F8FBFF36F8FE9E701F07DFB002075
:1022D000E8E702A800F034FE012619E0002384F8A4
:1022E000443021E0002384F8453023E02046FFF706
:1022F000B3FE00F0B7FC01F045FBA26BE36B9A4222
:10230000BBD3022DB9D0019B002BDED0002EE0D034
:1023100001F05AFB00F00CFC01F034FB94F844206F
:1023200052B2B2F1FF3FD9D094F8452052B2B2F187
:10233000FF3FD7D001F048FB01A902A800F00CFE36
:10234000D8B92046FFF71FFE0028CFD0019904F12D
:10235000100000F07BFD2046FFF77EFE00F082FCBF
:102360000028C8D14FF0E0234FF08052C3F8042D6D
:10237000BFF34F8FBFF36F8FBDE72046FFF76CFEB3
:1023800000F070FC00208DE72DE9F84390B10F4676
:1023900016461C460546B1B1022C20D1EB6B012B31
:1023A0001DD04FF0500383F31188BFF36F8FBFF33D
:1023B0004F8FFEE74FF0500383F31188BFF36F8F09
:1023C000BFF34F8FFEE7036C002BE5D04FF05003B7
:1023D00083F31188BFF36F8FBFF34F8FFEE701F0D8
:1023E000F7FBEFF311884FF0500383F31188BFF32D
:1023F0006F8FBFF34F8FAA6BEB6B9A4206D3022C01
:1024000004D0002088F31188BDE8F88395F8459042
:102410004FFA89F9AB6B224639462846FFF7CFFDC4
:10242000B9F1FF3F06D009F101035BB285F84530F1
:102430000120E7E76B6A0BB90120E3E705F124000F
:1024400000F038FD18B126B101203060DAE7012034
:10245000D8E70120D6E7F0B585B0019290B10F46DC
:102460000446C1B100F0C0FD064600BB019B002B35
:102470005ED04FF0500383F31188BFF36F8FBFF32B
:102480004F8FFEE74FF0500383F31188BFF36F8F38
:10249000BFF34F8FFEE7036C002BE3D04FF05003E8
:1024A00083F31188BFF36F8FBFF34F8FFEE70026D2
:1024B0003EE039462046FFF7BDFD013DA563236997
:1024C00023B901F081FA012005B0F0BD04F110003C
:1024D00000F0F0FC0028F4D04FF0E0234FF08052E1
:1024E000C3F8042DBFF34F8FBFF36F8FE9E701F0FF
:1024F0006BFA0020E8E702A800F022FD012621E0A7
:10250000002384F8443029E0002384F845302BE090
:102510002046FFF7A1FD00F0A5FB09E02046FFF7EC
:102520009BFD00F09FFB2046FFF73CFD00283FD1BC
:1025300001F028FAA56B002DBBD1019B002BD6D052
:10254000002ED8D001F040FA00F0F2FA01F01AFAA9
:1025500094F844305BB2B3F1FF3FD1D094F84530EA
:102560005BB2B3F1FF3FCFD001F02EFA01A902A870
:1025700000F0F2FC0028D1D12046FFF713FD00281F
:10258000C6D0019904F1240000F060FC2046FFF75A
:1025900063FD00F067FB0028CAD14FF0E0234FF045
:1025A0008052C3F8042DBFF34F8FBFF36F8FBFE787
:1025B000002089E70023072B0CD8074A52F8332064
:1025C0000AB10133F7E7044A42F8331002EBC302C1
:1025D00050607047704700BFFC05002070B504468E
:1025E0000D46164601F0CEF994F844305BB2B3F1D3
:1025F000FF3F0DD094F845305BB2B3F1FF3F0BD0F5
:1026000001F0E2F9A36B5BB12046FFF725FD70BD39
:10261000002384F84430EDE7002384F84530EFE7E9
:102620003246294604F1240000F028FCECE70000C3
:10263000084B1B681B6823B9074B4FF0FF321A6029
:102640007047044B1B68DB68DB685A68024B1A60F2
:10265000704700BFAC060020440600202DE9F0477B
:1026600080460D4617469946089EDDF824A00A9C30
:102670009200A521206B01F002FB236B07F1804241
:10268000013A03EB820727F00707002D61D04FF0D6
:10269000000CBCF10F0F09D815F80C3004EB0C023C
:1026A00082F8343013B10CF1010CF2E7002384F806
:1026B0004330372E00D93726E662E66400252565CB
:1026C000201DFFF726FC04F11800FFF722FC24610F
:1026D000C6F13806A6616462C4F8785184F87C516A
:1026E0004FF49072294604F1580001F0C8FA1B4BD0
:1026F000E36503F168022266D0336366012200239A
:10270000C4E93C2343F20E33A4F8F8304AF6CD3343
:10271000A4F8FA3041F23423A4F8FC304EF26D6391
:10272000A4F8FE304DF6EC63A4F800310523A4F8BC
:1027300002310B23A4F804314A464146384601F0E1
:10274000F7F82060BAF1000F01D0CAF80040BDE8E8
:10275000F087002384F83430ABE700BF94510020A9
:1027600038B5002407E004EB840293000E481844B7
:10277000FFF7C4FB0134372CF5D90C4D2846FFF781
:10278000BDFB0B4C2046FFF7B9FB0A48FFF7B6FB31
:102790000948FFF7B3FB0948FFF7B0FB084B1D6082
:1027A000084B1C6038BD00BFD8060020C4060020BE
:1027B000B006002094060020800600206806002055
:1027C000AC060020A806002010B5044601F0DAF897
:1027D000224A136801331360214B1B685BB1214B04
:1027E0001B686BB91E4B1B68DA6AE36A9A4207D80A
:1027F0001B4B1C6004E01A4B1C601368012B29D092
:10280000194A1368013313606364E06A174B1B684D
:10281000984201D9154B186000EB8000211D144B24
:1028200003EB8000FFF778FB01F0CEF80D4B1B683F
:102830007BB10B4B1B68DA6AE36A9A4209D24FF00C
:10284000E0234FF08052C3F8042DBFF34F8FBFF346
:102850006F8F10BDFFF784FFD2E700BF6406002032
:10286000380B002058060020480600205C06002097
:10287000D806002010B50446583001F009FA94F843
:102880007D3163B1012B11D0022B0ED04FF05003DC
:1028900083F31188BFF36F8FBFF34F8FFEE7206B79
:1028A00000F0CAFF204600F0C7FF10BD204600F030
:1028B000C3FFFAE70F4B1B68D3B110B501F062F804
:1028C0000D4BDB68DC68201DFFF74AFB0B4A1368E1
:1028D000013B1360074A1368013B136001F074F871
:1028E0002046FFF7C7FF034B1B68002BE6D110BD46
:1028F000704700BF7C060020800600206406002090
:1029000008B5FFF7D7FF074B1B68012BF9D94FF02C
:10291000E0234FF08052C3F8042DBFF34F8FBFF375
:102920006F8FEEE7D806002070B504460D46174BB2
:102930001E68174B18680430FFF712FBB4F1FF3F15
:102940000DD03444124B1B685C60A64210D9114B69
:1029500018680F4B19680431FFF7E9FA70BD002DB4
:10296000EFD00B4B196804310B48FFF7D5FAF5E7A8
:102970000A4B1868064B19680431FFF7D8FA084B60
:102980001B68A342EAD9064B1C60E7E760060020FB
:10299000380B0020A806002068060020AC060020A6
:1029A0004406002030B587B00B9C8CB10C9DC5B19E
:1029B0004FF4C0750495049DB5F5C07F1AD04FF053
:1029C000500383F31188BFF36F8FBFF34F8FFEE780
:1029D0004FF0500383F31188BFF36F8FBFF34F8F16
:1029E000FEE74FF0500383F31188BFF36F8FBFF3FF
:1029F0004F8FFEE7049D0C9D2C63022485F87D41DA
:102A000000240394029505AC01940A9C0094FFF7FE
:102A100025FE0C98FFF7D8FE059807B030BD2DE9CC
:102A2000F04385B00746884614461E46900000F0E5
:102A300081FE10B381464FF4C07000F07BFE054666
:102A4000A8B1C0F83090002380F87D310393029044
:102A50000D9B01930C9B009333462246414638461A
:102A6000FFF7FCFD2846FFF7AFFE012007E04846D0
:102A700000F0E2FE4FF0FF3001E04FF0FF3005B014
:102A8000BDE8F08310B588B000240594069407AA29
:102A900006A905A800F0D2FD059B0293069B0193B1
:102AA00000942346079A1A491A48FFF77BFF1A4BEE
:102AB0001860E8B100F05CFB01281AD14FF0500318
:102AC00083F31188BFF36F8FBFF34F8F134B1B68D6
:102AD0005833134A1360134B4FF0FF321A60124BF6
:102AE00001221A60114B00221A6000F0E5FF03E09A
:102AF0000020B0F1FF3F01D008B010BD4FF05003EF
:102B000083F31188BFF36F8FBFF34F8FFEE700BFD2
:102B10003C4100080129000840060020380B002035
:102B20001000002044060020580600206006002007
:102B3000024A136801331360704700BF3C0600204F
:102B4000014B1868704700BF60060020F8B53A4B8B
:102B50001B68002B69D1394B1D6801351D60C5B953
:102B6000374B1B681B6843B14FF0500383F3118848
:102B7000BFF36F8FBFF34F8FFEE7314A1168314BC0
:102B8000186810601960304A136801331360FFF74A
:102B90004FFD2E4B1B68AB423DD900272C4B1B68C9
:102BA000DB6A03EB83039A002A4B9B58012B00D965
:102BB0000127294B1B68002B3CD001273AE0012755
:102BC0001F4B1B681B6843B31D4B1B68DB68DC682D
:102BD00063689D4226D3261D3046FFF7C1F9A36ADC
:102BE0001BB104F11800FFF7BBF9E36A1B4A126836
:102BF000934201D9194A136003EB83039A003146CB
:102C000014481044FFF788F9E26A114B1B68DB6A2D
:102C10009A42D4D2D4E70027D2E70C4B4FF0FF32D0
:102C20001A60BBE7094A1360B8E70D4A136801331D
:102C3000136000273846F8BD3C06002060060020DF
:102C4000AC060020A80600204C0600204406002008
:102C5000380B0020D8060020500600205C0600201B
:102C60005406002038B5354B1B6843B94FF050036C
:102C700083F31188BFF36F8FBFF34F8FFEE700F030
:102C800081FE2E4B1A68013A1A601B68002B4FD147
:102C90002B4B1B680BB900244BE00024294B1B680D
:102CA0001BB3284BDB68DC6804F11800FFF758F908
:102CB000251D2846FFF754F9E06A234B1B6898420C
:102CC00001D9214B186000EB800029461F4B03EB14
:102CD0008000FFF721F9E26A1D4B1B68DB6A9A420C
:102CE000DCD31C4B01221A60D8E70CB1FFF7A0FC23
:102CF000194B1C6884B9174B1C68D4B14FF0E02302
:102D00004FF08052C3F8042DBFF34F8FBFF36F8F86
:102D100001240EE0013C07D0FFF718FF0028F9D08E
:102D20000C4B01221A60F5E70B4B00221A60E2E718
:102D3000002400F049FE204638BD00BF3C060020BC
:102D400064060020940600205C060020D8060020BF
:102D5000380B0020500600205406002010B5A8B102
:102D60000446104B1B6843B14FF0500383F31188A6
:102D7000BFF36F8FBFF34F8FFEE7FFF7D9FE002140
:102D80002046FFF7D1FDFFF76DFF48B94FF0E02374
:102D90004FF08052C3F8042DBFF34F8FBFF36F8FF6
:102DA00010BD00BF3C060020224B1B681BB1224B0C
:102DB00001221A607047204B00221A601F4B1B68CB
:102DC00003EB83018A001E498A585AB90BB1013BB3
:102DD000F6E74FF0500383F31188BFF36F8FBFF313
:102DE0004F8FFEE7084603EB83018A0002445168D7
:102DF0004968516003EB830C4FEA8C0208320244AD
:102E000091420FD003EB830291000D4A0A445268AD
:102E1000D1680C4A116009490B60136858330A4A9B
:102E200013607047486862469100054A0A44506042
:102E3000E8E700BF3C060020500600205C060020AA
:102E4000D8060020380B00201000002058B110B523
:102E50000C46094A11681831FFF769F8012120462C
:102E6000FFF762FD10BD4FF0500383F31188BFF3ED
:102E70006F8FBFF34F8FFEE7380B002038B570B16E
:102E80000D4614460A4A11681831FFF745F80CB18F
:102E90004FF0FF3521462846FFF746FD38BD4FF07D
:102EA000500383F31188BFF36F8FBFF34F8FFEE79B
:102EB000380B002038B5C368DC6824B304F118056A
:102EC0002846FFF74DF8184B1B682BBB251D2846DD
:102ED000FFF746F8E06A154B1B68984201D9134B7F
:102EE000186000EB80002946114B03EB8000FFF7D0
:102EF00013F8E26A0F4B1B68DB6A9A4211D9012072
:102F00000D4B186038BD4FF0500383F31188BFF3A9
:102F10006F8FBFF34F8FFEE729460848FEF7FCFF8F
:102F2000E7E70020EEE700BF3C0600205C0600203B
:102F3000D8060020380B0020500600209406002000
:102F4000034B1B680360034B1B684360704700BF63
:102F50004C06002060060020F8B5C8B10C460546B6
:102F6000F9B100F00FFD1B4B19686B68C81A226895
:102F7000B2F1FF3F26D0184E36682F68B74201D015
:102F80008B4224D9824215D80023236001241AE001
:102F90004FF0500383F31188BFF36F8FBFF34F8F50
:102FA000FEE74FF0500383F31188BFF36F8FBFF339
:102FB0004F8FFEE75B1A134423602846FFF7C0FFDC
:102FC000002400E0002400F0FFFC2046F8BD0124AE
:102FD000F9E700BF600600204C060020014B0122EB
:102FE0001A60704750060020054B1B6833B1054B33
:102FF0001B680BB10020704702207047012070470A
:10300000580600203C06002000283BD038B5044676
:103010001E4B1B68834208D04FF0500383F3118886
:10302000BFF36F8FBFF34F8FFEE7036D43B94FF0D0
:10303000500383F31188BFF36F8FBFF34F8FFEE709
:10304000013B0365C16AC26C91421DD00BB10020E7
:1030500038BD051D2846FEF783FFE06CE062C0F135
:103060003803A3610A4B1B68984201D9084B1860CA
:1030700000EB80002946074B03EB8000FEF74CFF76
:103080000120E5E7002070470020E1E7380B002031
:103090005C060020D8060020064B1A6813682BB97E
:1030A0000123036023B9D368186870470023F8E749
:1030B000002070473C0C002008B54160006191423F
:1030C0000CD8D21A83699A4201D3012008BD011D90
:1030D000094B1868FEF72BFF0020F7E79A4201D250
:1030E000994206D2011D054B1868FEF720FF00200B
:1030F000ECE70120EAE700BF380C00203C0C002080
:1031000030B583B000F03EFC114B1B681BB100F0E2
:103110005BFC03B030BD0F4D2846FEF7EFFE0E4CB2
:103120002046FEF7EBFE0D4B1D600D4B1C6000238F
:1031300000930C4B0C4A10210A20FFF717F8044BA0
:1031400018600028E3D00949FFF734FADFE700BF31
:10315000340C0020540C0020400C00203C0C0020BB
:10316000380C00203C0B00208C0B00204441000850
:1031700010B588B0FFF7C4FF124B1B68CBB1002419
:103180000594069407AA06A905A800F063FA059B12
:103190000293069B0193022300932346079A0A4950
:1031A0000A48FFF7FFFB0A4B186010B1012008B076
:1031B00010BD4FF0500383F31188BFF36F8FBFF33F
:1031C0004F8FFEE7340C00204C410008D534000836
:1031D000300C0020B8B19C4603461848006858B32C
:1031E00000B585B000910192029305291CDCFFF720
:1031F000FBFE022810D000231A4669460F480068DB
:10320000FEF7FEFF15E04FF0500383F31188BFF384
:103210006F8FBFF34F8FFEE70023069A694607487A
:103220000068FEF7EDFF04E0002362466946FFF701
:10323000ABF805B05DF804FB00207047340C0020AB
:1032400070B582B01B4B1B681A6862B3DB681E68DE
:10325000DC68251D2846FEF783FE236A2046984732
:1032600094F8283013F0040FECD0A36933449E4245
:1032700007D26360246129460E4B1868FEF757FE9B
:10328000E0E7002100910B4632462046FFF7A2FFFF
:103290000028D7D14FF0500383F31188BFF36F8F0D
:1032A000BFF34F8FFEE7044A1068024908601360BD
:1032B00002B070BD3C0C0020380C002038B505462B
:1032C000FFF73EFC0446074B1B68834205D80023EA
:1032D0002B60044B1C60204638BDFFF7B1FF012373
:1032E0002B60F6E72C0C002070B582B006460D4628
:1032F00017490968C968CC68201DFEF731FE94F8AB
:1033000028C01CF0040F08D12CF0010C84F828C050
:10331000236A2046984702B070BDA16933462A4609
:1033200031442046FFF7C8FE0028F1D0002100916B
:103330000B4632462046FFF74DFF0028E8D14FF0FC
:10334000500383F31188BFF36F8FBFF34F8FFEE7F6
:103350003C0C002070B582B006460C46FFF7E8FB37
:1033600001A8FFF7ABFF019B33BB0546E4B9B042B0
:1033700013D22246711B124B1868FFF72FF9FFF783
:1033800071FCD8B94FF0E0234FF08052C3F8042D00
:10339000BFF34F8FBFF36F8F10E0FFF763FC294639
:1033A0003046FFF7A1FF09E0064A126812680AB921
:1033B0000124DEE71C46DCE7FFF754FC02B070BDD9
:1033C000340C0020380C002010B588B002E0049BBB
:1033D000002B0FDA002204A93D4B1868FFF73BF8D9
:1033E000002873D0049B002BF1DA07990698059BFF
:1033F0009847ECE7069C636913B1201DFEF7B0FD0A
:1034000003A8FFF75BFF049B092BE3D8DFE803F079
:103410000505053037500505303794F8283043F05E
:10342000010384F82830059BA1690246194420460F
:10343000FFF742FE0028CDD0236A2046984794F833
:10344000283013F0040FC5D0A269002100910B466B
:10345000059802442046FFF7BDFE0028BAD14FF080
:10346000500383F31188BFF36F8FBFF34F8FFEE7D5
:1034700094F8283023F0010384F82830AAE794F860
:10348000283043F0010384F828300599A16131B157
:103490000346024601442046FFF70EFE9AE74FF02E
:1034A000500383F31188BFF36F8FBFF34F8FFEE795
:1034B00094F8283013F0020F04D023F0010384F8AD
:1034C000283087E7204600F0B7F983E708B010BD41
:1034D000340C002000B583B001A8FFF7DDFD019991
:1034E000FFF738FFFFF770FFF6E708B54FF0E0236E
:1034F0001B69FFF779FD012800D108BD00F0B2FA81
:10350000FBE70000EFF305832BB9064B186828B9D9
:1035100001221A6070476FF0050070474FF0FF30CE
:10352000704700BF68150020EFF3058373B90A4B9D
:103530001B68012B0DD110B50024084BDC77064B1E
:1035400002221A60FFF79EFA204610BD6FF00500B8
:1035500070474FF0FF3070476815002000ED00E025
:10356000F0B587B000240594EFF305847CBB70B3FD
:103570002AB31568936903B918235C1E372C4AD8FF
:10358000546814F0010F48D1566976B14FEA960C91
:10359000946834B1D768B7F5C07F02D3176907B113
:1035A000C6B92CB14FF0FF340EE04FF0800CEFE7BE
:1035B000D4688CB9146994B14FF0FF3404E0154617
:1035C000002418234FF0800C012C0AD0ACB10598D0
:1035D00007B0F0BD0124F7E74FF0FF34F4E7002413
:1035E000F2E7146992680292019400930B466246D6
:1035F0002946FFF7D7F90590E9E705AA019200935C
:103600000B461FFA8CF22946FFF709FA0128DED093
:1036100000230593DBE70020DAE70020D8E708B5B0
:10362000EFF3058333B908B9002008BDFFF796FB17
:103630000020FAE76FF00500F7E70000034B036096
:10364000034B0B6080231360704700BFE81300201A
:10365000E8110020034B0360034B0B604FF48073B1
:103660001360704768100020680C0020124A12F0A6
:10367000070F1ED0D11D21F00701C1F5705313446F
:103680000A460E480260002141601344083B23F0C3
:1036900007030B48036059601960991A5160136061
:1036A000084B1960084B1960084B4FF000421A6034
:1036B00070474FF47053E4E78C1500208415002008
:1036C00080150020781500207C1500206C15002046
:1036D000164B1A461B688342FBD3516802EB010C60
:1036E000844509D0416800EB010C634509D00360B3
:1036F000904219D0106070474068014451601046F4
:10370000F0E710B40A4C2468A3420BD05B6819445C
:10371000416013681B680360904200D010605DF840
:10372000044B70470460F7E7704700BF8415002022
:103730008015002038B50446FFF7FAF9384B1B68AE
:10374000B3B1384B1B681C4250D1002C50D004F14F
:10375000080214F0070F02D022F007020832002AF4
:1037600055D0314B1B68934253D330490C6804E069
:10377000FFF77CFFE5E721461C466368934202D2CF
:103780002368002BF7D1264B1B68A34243D00D685A
:10379000083523680B6063689B1A102B10D9A0189A
:1037A00010F0070F08D04FF0500383F31188BFF3D8
:1037B0006F8FBFF34F8FFEE743606260FFF788FFB4
:1037C000626819490B689B1A0B60194909688B429A
:1037D00001D217490B60134B1B681343636000232E
:1037E0002360144A13680133136002E0002500E0EF
:1037F0000025FFF737FA15F0070F0ED04FF05003F2
:1038000083F31188BFF36F8FBFF34F8FFEE700255F
:10381000EFE70025EDE70025EBE7284638BD00BFC0
:10382000801500206C1500207C15002084150020D8
:103830007815002074150020002834D038B50446CF
:10384000A0F1080550F8043C174A1268134208D149
:103850004FF0500383F31188BFF36F8FBFF34F8F87
:10386000FEE750F8081C41B14FF0500383F3118874
:10387000BFF36F8FBFF34F8FFEE723EA020340F8D9
:10388000043CFFF755F954F8041C084A13680B442C
:1038900013602846FFF71CFF054A136801331360C5
:1038A000FFF7E0F938BD70476C1500207C1500204B
:1038B0007015002082B0002301930D4B1B68B3F1FB
:1038C000FF3F08D04FF0500383F31188BFF36F8F91
:1038D000BFF34F8FFEE74FF0500383F31188BFF320
:1038E0006F8FBFF34F8F019B002BFCD002B070474E
:1038F0000C00002008480068006880F308884FF03A
:10390000000080F3148862B661B6BFF34F8FBFF337
:103910006F8F00DF00BF000008ED00E0DFF80C0053
:10392000016841F4700101607047000088ED00E01B
:103930004FF0807340F8043C21F0010140F8081C6E
:10394000054B40F80C3C40F8202C6FF0020340F887
:10395000243C4438704700BFB53800080000000020
:10396000074B19680868B0E8F04F80F30988BFF387
:103970006F8F4FF0000080F311887047AFF3008025
:10398000380B00204FF0500383F31188BFF36F8F83
:10399000BFF34F8F0B4A136801331360012B00D024
:1039A00070474FF0E023D3F8043D13F0FF0FF7D03A
:1039B0004FF0500383F31188BFF36F8FBFF34F8F26
:1039C000FEE700BF0C000020094B1B6843B94FF015
:1039D000500383F31188BFF36F8FBFF34F8FFEE760
:1039E000013B034A13600BB983F31188704700BF92
:1039F0000C0000200000000000000000000000009B
:103A0000EFF30980BFF36F8F154B1A681EF0100F8C
:103A100008BF20ED108A20E9F04F10602DE9090061
:103A20004FF0500080F31188BFF34F8FBFF36F8FBB
:103A3000FFF7BAF94FF0000080F3118809BC19684C
:103A40000868B0E8F04F1EF0100F08BFB0EC108A05
:103A500080F30988BFF36F8F704700BFAFF300801A
:103A6000380B002008B54FF0500383F31188BFF3E3
:103A70006F8FBFF34F8FFFF769F828B14FF0E02346
:103A80004FF08052C3F8042D002383F3118808BD42
:103A90004FF0E022002313619361054B1B68054939
:103AA000A1FB03139B09013B53610723136170477B
:103AB00008000020D34D62104FF0E023D3F8002D12
:103AC0003D4B9A421CD04FF0E023D3F8002D3B4BE6
:103AD0009A421ED030B583B0394B1A78D2B20192D7
:103AE000FF221A701B78DBB28DF803309DF803308B
:103AF00003F05003334A1370334B07221A601BE064
:103B00004FF0500383F31188BFF36F8FBFF34F8FD4
:103B1000FEE74FF0500383F31188BFF36F8FBFF3BD
:103B20004F8FFEE7284A1368013B13609DF803306E
:103B30005B00DBB28DF803309DF8033013F0800F8B
:103B4000F0D1214B1B68032B08D04FF0500383F3B7
:103B50001188BFF36F8FBFF34F8FFEE71B021A4A26
:103B6000136003F4E0631360019BDBB2144A13702B
:103B70004FF0E024D4F8203D43F47003C4F8203D16
:103B8000D4F8203D43F07043C4F8203DFFF780FF98
:103B900000250E4B1D60FFF7C1FED4F8343F43F003
:103BA0004043C4F8343FFFF7A5FEFFF7FDF8FFF7E9
:103BB00081FE284603B030BD71C20F4170C20F4173
:103BC00000E400E0905100208C5100200C00002007
:103BD000EFF305830F2B0FD9114A9B5CDBB2114A1F
:103BE00012789A4208D94FF0500383F31188BFF33B
:103BF0006F8FBFF34F8FFEE74FF0E023D3F80C3DFC
:103C000003F4E063084A1268934208D94FF0500366
:103C100083F31188BFF36F8FBFF34F8FFEE77047B9
:103C2000F0E300E0905100208C510020DFF834D008
:103C3000FEF75AF90C480D490D4A002302E0D4580A
:103C4000C4500433C4188C42F9D30A4A0A4C0023E6
:103C500001E013600432A242FBD300F06FF8FCF7DE
:103C60004DFC70470000052000000020600000208F
:103C7000C441000860000020D4520020FEE7024446
:103C80000346934200D1704703F8011BF9E7000097
:103C9000294B1B68834270B504464BD0C369ABB156
:103CA000DB686BB10025E369DB68595900293BD11A
:103CB0000435802DF7D1E3692046D96800F072F809
:103CC000E369196811B1204600F06CF8616911B11F
:103CD000204600F067F8E16911B1204600F062F873
:103CE000216B11B1204600F05DF8616B11B12046E7
:103CF00000F058F8A16B11B1204600F053F8A16C08
:103D000011B1204600F04EF8616C11B1204600F070
:103D100049F8E16A11B1204600F044F8236A4BB13A
:103D20002046BDE8704018470E68204600F03AF87B
:103D30003146BBE770BD00BF1000002070B50D4DCF
:103D40000D4C641BA4100026A64209D10B4D0C4C4F
:103D500000F0DCF9641BA4100026A64205D170BD5A
:103D600055F8043B98470136EEE755F8043B984771
:103D70000136F2E7BC410008BC410008BC41000824
:103D8000C0410008704770470A44914200F1FF3378
:103D900000D1704710B511F8014B03F8014F914263
:103DA000F9D110BD38B50546002941D051F8043C81
:103DB0000C1F002BB8BFE41800F03EF81D4A136832
:103DC00033B9636014602846BDE8384000F03AB863
:103DD000A34208D9206821188B4201BF19685B688B
:103DE00009182160EDE71A465B680BB1A342FAD9C6
:103DF00011685018A0420BD120680144501883422A
:103E00001160E0D118685B68536008441060DAE71D
:103E100002D90C232B60D6E7206821188B4204BFFF
:103E200019685B68636004BF091821605460CAE7C1
:103E300038BD00BFD05200200148FFF7A3BF00BF2C
:103E4000CC5200200148FFF79EBF00BFCC5200209B
:103E50002DE9F047089D0E4604460F46002B4AD137
:103E600094468C45B2FA82F260D942B1C2F1200385
:103E7000974020FA03F30CFA02FC1F4394404FEAE8
:103E80001C4E1FFA8CF6B7FBFEF1230C0EFB1177CC
:103E900043EA074301FB06F098420AD91CEB0303EF
:103EA00001F1FF3780F01581984240F2128102390A
:103EB00063441B1AA4B2B3FBFEF00EFB103344EABA
:103EC000034400FB06F6A6420AD91CEB040400F1E9
:103ED000FF3380F00081A64240F2FD806444023846
:103EE00040EA0140A41B00211DB1D4400023C5E9D4
:103EF0000043BDE8F0878B4205D90DB1C5E900014B
:103F000000210846F5E7B3FA83F1002946D1B34210
:103F100002D3824200F2F580841A66EB030201208C
:103F20001746002DE5D0C5E90047E2E7002A40F03A
:103F30009380A1EB0C034FEA1C471FFA8CFE012172
:103F4000B3FBF7F607FB1630230C43EA00430EFBE6
:103F500006F0984208D91CEB030306F1FF3802D2A1
:103F6000984200F2D08046461B1AA4B2B3FBF7F089
:103F700007FB103344EA03440EFB00FEA64508D9B4
:103F80001CEB040400F1FF3302D2A64500F2B68018
:103F90001846A4EB0E0440EA0640A5E7C1F120074D
:103FA0008B4022FA07FC4CEA030C06FA01FE20FAC9
:103FB00007F426FA07F344EA0E0400FA01F84FEA80
:103FC0001C404FEA1449B3FBF0FE1FFA8CF600FBCD
:103FD0001E3349EA03430EFB06F9994502FA01F242
:103FE0000BD91CEB03030EF1FF3A80F08580994555
:103FF00040F28280AEF1020E6344A3EB0909A4B241
:10400000B9FBF0F300FB139944EA094403FB06F6FD
:10401000A64208D91CEB040403F1FF3068D2A64283
:1040200066D9023B644443EA0E40A41BA0FB02E6AF
:10403000B4427346B14652D34FD05DB1B8EB0302E0
:1040400064EB090404FA07F722FA01F31F43CC409A
:10405000C5E9007400214CE7C2F1200120FA01F308
:104060000CFA02FC26FA01F1964033434FEA1C4752
:104070001FFA8CFEB1FBF7F007FB1016190C41EA92
:10408000064100FB0EF68E4204FA02F408D91CEB3E
:10409000010100F1FF382DD28E422BD90238614444
:1040A000891B9BB2B1FBF7F607FB161143EA0143EC
:1040B00006FB0EF1994208D91CEB030306F1FF3809
:1040C00014D2994212D9023E63445B1A46EA004177
:1040D00036E73946EDE6184602E7F045ADD2BEEBCD
:1040E000020366EB0C060138B146A6E74646ECE74C
:1040F000034698E74046D3E7D6467EE76444023855
:1041000047E708460DE7023E63442DE7F8B500BFD8
:10411000F8BC08BC9E467047F8B500BFF8BC08BCA8
:044120009E46704700
:104124004C45445F746F67676C6500006465666145
:10413400756C745461736B0049444C450000000075
:10414400546D725100000000546D72205376630068
:1041540024410008000000000000000000000000EE
:104164000000000000020000200000000000000029
:1041740000000000304100080000000000000000C2
:104184000000000000000000000200001800000011
:104194000000000000000000000000000102030411
:1041A40000000000000000000102030406070809E3
:0841B4009CFCFF7F01000000EC
:0441BC007D02000878
:0441C000550200089C
:1041C40001000000100000000024F400AAAAAAAA1A
:1041D400140000200000000094510020FC51002035
:1041E40064520020000000000000000000000000F5
:1041F40000000000000000000000000000000000BB
:1042040000000000000000000000000000000000AA
:10421400000000000000000000000000000000009A
:0400000508003C2D86
:00000001FF
